{
  "address": "0xD14b8A9f58299b46B11A16Cd3F07183F02544Dd7",
  "abi": [
    {
      "inputs": [
        {
          "internalType": "address",
          "name": "_owner",
          "type": "address"
        }
      ],
      "stateMutability": "nonpayable",
      "type": "constructor"
    },
    {
      "inputs": [
        {
          "internalType": "address",
          "name": "target",
          "type": "address"
        }
      ],
      "name": "AddressEmptyCode",
      "type": "error"
    },
    {
      "inputs": [
        {
          "internalType": "address",
          "name": "account",
          "type": "address"
        }
      ],
      "name": "AddressInsufficientBalance",
      "type": "error"
    },
    {
      "inputs": [],
      "name": "FailedInnerCall",
      "type": "error"
    },
    {
      "inputs": [],
      "name": "ReentrancyGuardReentrantCall",
      "type": "error"
    },
    {
      "inputs": [
        {
          "internalType": "address",
          "name": "token",
          "type": "address"
        }
      ],
      "name": "SafeERC20FailedOperation",
      "type": "error"
    },
    {
      "anonymous": false,
      "inputs": [
        {
          "indexed": true,
          "internalType": "address",
          "name": "user",
          "type": "address"
        },
        {
          "indexed": true,
          "internalType": "address",
          "name": "token",
          "type": "address"
        },
        {
          "indexed": false,
          "internalType": "uint256",
          "name": "amount",
          "type": "uint256"
        },
        {
          "indexed": false,
          "internalType": "string",
          "name": "chain",
          "type": "string"
        },
        {
          "indexed": false,
          "internalType": "uint256",
          "name": "timestamp",
          "type": "uint256"
        }
      ],
      "name": "Deposit",
      "type": "event"
    },
    {
      "anonymous": false,
      "inputs": [
        {
          "indexed": true,
          "internalType": "address",
          "name": "user",
          "type": "address"
        },
        {
          "indexed": true,
          "internalType": "address",
          "name": "token",
          "type": "address"
        },
        {
          "indexed": false,
          "internalType": "uint256",
          "name": "amount",
          "type": "uint256"
        },
        {
          "indexed": false,
          "internalType": "string",
          "name": "vault",
          "type": "string"
        },
        {
          "indexed": false,
          "internalType": "uint256",
          "name": "apy",
          "type": "uint256"
        },
        {
          "indexed": false,
          "internalType": "string",
          "name": "intentId",
          "type": "string"
        }
      ],
      "name": "YieldRouted",
      "type": "event"
    },
    {
      "inputs": [
        {
          "internalType": "address",
          "name": "token",
          "type": "address"
        },
        {
          "internalType": "uint256",
          "name": "amount",
          "type": "uint256"
        },
        {
          "internalType": "string",
          "name": "chain",
          "type": "string"
        }
      ],
      "name": "deposit",
      "outputs": [],
      "stateMutability": "nonpayable",
      "type": "function"
    },
    {
      "inputs": [
        {
          "internalType": "address",
          "name": "user",
          "type": "address"
        },
        {
          "internalType": "address",
          "name": "token",
          "type": "address"
        }
      ],
      "name": "getUserDeposit",
      "outputs": [
        {
          "internalType": "uint256",
          "name": "",
          "type": "uint256"
        }
      ],
      "stateMutability": "view",
      "type": "function"
    },
    {
      "inputs": [],
      "name": "owner",
      "outputs": [
        {
          "internalType": "address",
          "name": "",
          "type": "address"
        }
      ],
      "stateMutability": "view",
      "type": "function"
    },
    {
      "inputs": [
        {
          "internalType": "address",
          "name": "",
          "type": "address"
        }
      ],
      "name": "totalDeposits",
      "outputs": [
        {
          "internalType": "uint256",
          "name": "",
          "type": "uint256"
        }
      ],
      "stateMutability": "view",
      "type": "function"
    },
    {
      "inputs": [
        {
          "internalType": "address",
          "name": "",
          "type": "address"
        },
        {
          "internalType": "address",
          "name": "",
          "type": "address"
        }
      ],
      "name": "userDeposits",
      "outputs": [
        {
          "internalType": "uint256",
          "name": "",
          "type": "uint256"
        }
      ],
      "stateMutability": "view",
      "type": "function"
    },
    {
      "inputs": [
        {
          "internalType": "address",
          "name": "token",
          "type": "address"
        },
        {
          "internalType": "uint256",
          "name": "amount",
          "type": "uint256"
        }
      ],
      "name": "withdraw",
      "outputs": [],
      "stateMutability": "nonpayable",
      "type": "function"
    },
    {
      "inputs": [],
      "name": "withdrawETH",
      "outputs": [],
      "stateMutability": "nonpayable",
      "type": "function"
    },
    {
      "stateMutability": "payable",
      "type": "receive"
    }
  ],
  "transactionHash": "0x98e17f4e16b6549d7ab734efb51ecd3b5a28e3c113bf1ec8ab9cbc54c650af55",
  "args": [
    "0x25F11abB6e6CBdb76c14fF39568C82e8799a4fEe"
  ],
  "numDeployments": 1,
  "solcInputHash": "c79ad2ac52b69d17236c7df2d3de8870",
  "bytecode": "0x60a060405234801561001057600080fd5b50604051610cce380380610cce83398101604081905261002f91610045565b60016000556001600160a01b0316608052610075565b60006020828403121561005757600080fd5b81516001600160a01b038116811461006e57600080fd5b9392505050565b608051610c3161009d6000396000818160fd0152818161036901526103ca0152610c316000f3fe6080604052600436106100745760003560e01c8063bfe07da61161004e578063bfe07da614610137578063e086e5ec14610159578063e94032561461016e578063f3fef3a31461019b57600080fd5b8063148c658c14610080578063436d8039146100b35780638da5cb5b146100eb57600080fd5b3661007b57005b600080fd5b34801561008c57600080fd5b506100a061009b366004610973565b6101bb565b6040519081526020015b60405180910390f35b3480156100bf57600080fd5b506100a06100ce366004610973565b600260209081526000928352604080842090915290825290205481565b3480156100f757600080fd5b5061011f7f000000000000000000000000000000000000000000000000000000000000000081565b6040516001600160a01b0390911681526020016100aa565b34801561014357600080fd5b506101576101523660046109bc565b6101e8565b005b34801561016557600080fd5b5061015761035e565b34801561017a57600080fd5b506100a0610189366004610a87565b60016020526000908152604090205481565b3480156101a757600080fd5b506101576101b6366004610aa2565b610483565b6001600160a01b038083166000908152600260209081526040808320938516835292905220545b92915050565b6101f061057d565b6000821161023a5760405162461bcd60e51b81526020600482015260126024820152710416d6f756e74206d757374206265203e20360741b60448201526064015b60405180910390fd5b6001600160a01b0383166102805760405162461bcd60e51b815260206004820152600d60248201526c24b73b30b634b2103a37b5b2b760991b6044820152606401610231565b6102956001600160a01b0384163330856105a7565b6001600160a01b038316600090815260016020526040812080548492906102bd908490610ae2565b90915550503360009081526002602090815260408083206001600160a01b0387168452909152812080548492906102f5908490610ae2565b90915550506040516001600160a01b0384169033907ff65183fa5938f2cb9c2608ff3cbad853c96efa794a219ae218dd17e5a58f2cbe9061033b90869086904290610b45565b60405180910390a361034f33848484610614565b6103596001600055565b505050565b336001600160a01b037f000000000000000000000000000000000000000000000000000000000000000016146103c65760405162461bcd60e51b815260206004820152600d60248201526c2737ba103a34329027bbb732b960991b6044820152606401610231565b60007f00000000000000000000000000000000000000000000000000000000000000006001600160a01b03164760405160006040518083038185875af1925050503d8060008114610433576040519150601f19603f3d011682016040523d82523d6000602084013e610438565b606091505b50509050806104805760405162461bcd60e51b81526020600482015260146024820152732330b4b632b2103a379039b2b7321022ba3432b960611b6044820152606401610231565b50565b61048b61057d565b3360009081526002602090815260408083206001600160a01b03861684529091529020548111156104f55760405162461bcd60e51b8152602060048201526014602482015273496e73756666696369656e742062616c616e636560601b6044820152606401610231565b3360009081526002602090815260408083206001600160a01b038616845290915281208054839290610528908490610b6e565b90915550506001600160a01b03821660009081526001602052604081208054839290610555908490610b6e565b9091555061056f90506001600160a01b038316338361078c565b6105796001600055565b5050565b6002600054036105a057604051633ee5aeb560e01b815260040160405180910390fd5b6002600055565b6040516001600160a01b03848116602483015283811660448301526064820183905261060e9186918216906323b872dd906084015b604051602081830303815290604052915060e01b6020820180516001600160e01b0383818316178352505050506107bd565b50505050565b6000606060405160200161063290634261736560e01b815260040190565b60405160208183030381529060405280519060200120836040516020016106599190610b81565b60405160208183030381529060405280519060200120036106a257505060408051808201909152600c81526b10985cd9535bdbdb9dd95b1b60a21b60208201526104b0906106cb565b505060408051808201909152600b81526a5365706f6c69614d6f636b60a81b6020820152610320905b60405166696e74656e742d60c81b6020820152606087811b6bffffffffffffffffffffffff199081166027840152602d60f81b603b84018190529188901b16603c8301526050820152605181018590526000906071016040516020818303038152906040529050856001600160a01b0316876001600160a01b03167f9e024249f273bc9709dbd16e49f48496a548836b851dd9986a840bf2b89d1cfb8785878660405161077b9493929190610b9d565b60405180910390a350505050505050565b6040516001600160a01b0383811660248301526044820183905261035991859182169063a9059cbb906064016105dc565b60006107d26001600160a01b03841683610820565b905080516000141580156107f75750808060200190518101906107f59190610bd9565b155b1561035957604051635274afe760e01b81526001600160a01b0384166004820152602401610231565b606061082e83836000610835565b9392505050565b60608147101561085a5760405163cd78605960e01b8152306004820152602401610231565b600080856001600160a01b031684866040516108769190610b81565b60006040518083038185875af1925050503d80600081146108b3576040519150601f19603f3d011682016040523d82523d6000602084013e6108b8565b606091505b50915091506108c88683836108d2565b9695505050505050565b6060826108e7576108e28261092e565b61082e565b81511580156108fe57506001600160a01b0384163b155b1561092757604051639996b31560e01b81526001600160a01b0385166004820152602401610231565b508061082e565b80511561093e5780518082602001fd5b604051630a12f52160e11b815260040160405180910390fd5b80356001600160a01b038116811461096e57600080fd5b919050565b6000806040838503121561098657600080fd5b61098f83610957565b915061099d60208401610957565b90509250929050565b634e487b7160e01b600052604160045260246000fd5b6000806000606084860312156109d157600080fd5b6109da84610957565b925060208401359150604084013567ffffffffffffffff808211156109fe57600080fd5b818601915086601f830112610a1257600080fd5b813581811115610a2457610a246109a6565b604051601f8201601f19908116603f01168101908382118183101715610a4c57610a4c6109a6565b81604052828152896020848701011115610a6557600080fd5b8260208601602083013760006020848301015280955050505050509250925092565b600060208284031215610a9957600080fd5b61082e82610957565b60008060408385031215610ab557600080fd5b610abe83610957565b946020939093013593505050565b634e487b7160e01b600052601160045260246000fd5b808201808211156101e2576101e2610acc565b60005b83811015610b10578181015183820152602001610af8565b50506000910152565b60008151808452610b31816020860160208601610af5565b601f01601f19169290920160200192915050565b838152606060208201526000610b5e6060830185610b19565b9050826040830152949350505050565b818103818111156101e2576101e2610acc565b60008251610b93818460208701610af5565b9190910192915050565b848152608060208201526000610bb66080830186610b19565b8460408401528281036060840152610bce8185610b19565b979650505050505050565b600060208284031215610beb57600080fd5b8151801515811461082e57600080fdfea2646970667358221220df49fa92b1d29ced2e170c79999b67dc0bc594677adef946c849a3636541281364736f6c63430008140033",
  "devdoc": {
    "author": "ETHOnline 2025",
    "errors": {
      "AddressEmptyCode(address)": [
        {
          "details": "There's no code at `target` (it is not a contract)."
        }
      ],
      "AddressInsufficientBalance(address)": [
        {
          "details": "The ETH balance of the account is not enough to perform the operation."
        }
      ],
      "FailedInnerCall()": [
        {
          "details": "A call to an address target failed. The target may have reverted."
        }
      ],
      "ReentrancyGuardReentrantCall()": [
        {
          "details": "Unauthorized reentrant call."
        }
      ],
      "SafeERC20FailedOperation(address)": [
        {
          "details": "An operation with an ERC20 token failed."
        }
      ]
    },
    "kind": "dev",
    "methods": {
      "deposit(address,uint256,string)": {
        "params": {
          "amount": "Amount to deposit",
          "chain": "Target chain for routing (e.g., \"Base\")",
          "token": "The ERC20 token address (e.g., PEPE)"
        }
      },
      "withdraw(address,uint256)": {
        "params": {
          "amount": "Amount to withdraw",
          "token": "The token to withdraw"
        }
      }
    },
    "version": 1
  },
  "userdoc": {
    "kind": "user",
    "methods": {
      "deposit(address,uint256,string)": {
        "notice": "Deposit meme coins into the vault"
      },
      "getUserDeposit(address,address)": {
        "notice": "Get user deposit balance"
      },
      "withdraw(address,uint256)": {
        "notice": "Withdraw deposited tokens (for testing)"
      },
      "withdrawETH()": {
        "notice": "Function that allows the owner to withdraw ETH (for gas refunds)"
      }
    },
    "notice": "MemeVault contract for depositing meme coins and routing to highest yield vaults",
    "version": 1
  },
  "storageLayout": {
    "storage": [
      {
        "astId": 667,
        "contract": "contracts/MemeVault.sol:MemeVault",
        "label": "_status",
        "offset": 0,
        "slot": "0",
        "type": "t_uint256"
      },
      {
        "astId": 744,
        "contract": "contracts/MemeVault.sol:MemeVault",
        "label": "totalDeposits",
        "offset": 0,
        "slot": "1",
        "type": "t_mapping(t_address,t_uint256)"
      },
      {
        "astId": 750,
        "contract": "contracts/MemeVault.sol:MemeVault",
        "label": "userDeposits",
        "offset": 0,
        "slot": "2",
        "type": "t_mapping(t_address,t_mapping(t_address,t_uint256))"
      }
    ],
    "types": {
      "t_address": {
        "encoding": "inplace",
        "label": "address",
        "numberOfBytes": "20"
      },
      "t_mapping(t_address,t_mapping(t_address,t_uint256))": {
        "encoding": "mapping",
        "key": "t_address",
        "label": "mapping(address => mapping(address => uint256))",
        "numberOfBytes": "32",
        "value": "t_mapping(t_address,t_uint256)"
      },
      "t_mapping(t_address,t_uint256)": {
        "encoding": "mapping",
        "key": "t_address",
        "label": "mapping(address => uint256)",
        "numberOfBytes": "32",
        "value": "t_uint256"
      },
      "t_uint256": {
        "encoding": "inplace",
        "label": "uint256",
        "numberOfBytes": "32"
      }
    }
  }
}