{
  "address": "0x55F7C6fD7cA7713D1303505844F249e3adcE804f",
  "abi": [
    {
      "inputs": [
        {
          "internalType": "address",
          "name": "_owner",
          "type": "address"
        },
        {
          "internalType": "address",
          "name": "_pythContract",
          "type": "address"
        }
      ],
      "stateMutability": "nonpayable",
      "type": "constructor"
    },
    {
      "inputs": [
        {
          "internalType": "address",
          "name": "target",
          "type": "address"
        }
      ],
      "name": "AddressEmptyCode",
      "type": "error"
    },
    {
      "inputs": [
        {
          "internalType": "address",
          "name": "account",
          "type": "address"
        }
      ],
      "name": "AddressInsufficientBalance",
      "type": "error"
    },
    {
      "inputs": [],
      "name": "FailedInnerCall",
      "type": "error"
    },
    {
      "inputs": [],
      "name": "ReentrancyGuardReentrantCall",
      "type": "error"
    },
    {
      "inputs": [
        {
          "internalType": "address",
          "name": "token",
          "type": "address"
        }
      ],
      "name": "SafeERC20FailedOperation",
      "type": "error"
    },
    {
      "anonymous": false,
      "inputs": [
        {
          "indexed": true,
          "internalType": "address",
          "name": "user",
          "type": "address"
        },
        {
          "indexed": true,
          "internalType": "address",
          "name": "token",
          "type": "address"
        },
        {
          "indexed": false,
          "internalType": "uint256",
          "name": "amount",
          "type": "uint256"
        },
        {
          "indexed": false,
          "internalType": "string",
          "name": "chain",
          "type": "string"
        },
        {
          "indexed": false,
          "internalType": "uint256",
          "name": "timestamp",
          "type": "uint256"
        }
      ],
      "name": "Deposit",
      "type": "event"
    },
    {
      "anonymous": false,
      "inputs": [
        {
          "indexed": true,
          "internalType": "address",
          "name": "token",
          "type": "address"
        },
        {
          "indexed": false,
          "internalType": "bytes32",
          "name": "priceFeedId",
          "type": "bytes32"
        }
      ],
      "name": "PriceFeedRegistered",
      "type": "event"
    },
    {
      "anonymous": false,
      "inputs": [
        {
          "indexed": true,
          "internalType": "bytes32",
          "name": "priceFeedId",
          "type": "bytes32"
        },
        {
          "indexed": false,
          "internalType": "int64",
          "name": "price",
          "type": "int64"
        },
        {
          "indexed": false,
          "internalType": "uint64",
          "name": "conf",
          "type": "uint64"
        },
        {
          "indexed": false,
          "internalType": "int32",
          "name": "expo",
          "type": "int32"
        }
      ],
      "name": "PriceUpdated",
      "type": "event"
    },
    {
      "anonymous": false,
      "inputs": [
        {
          "indexed": true,
          "internalType": "address",
          "name": "user",
          "type": "address"
        },
        {
          "indexed": true,
          "internalType": "address",
          "name": "token",
          "type": "address"
        },
        {
          "indexed": false,
          "internalType": "uint256",
          "name": "amount",
          "type": "uint256"
        },
        {
          "indexed": false,
          "internalType": "string",
          "name": "vault",
          "type": "string"
        },
        {
          "indexed": false,
          "internalType": "uint256",
          "name": "apy",
          "type": "uint256"
        },
        {
          "indexed": false,
          "internalType": "string",
          "name": "intentId",
          "type": "string"
        }
      ],
      "name": "YieldRouted",
      "type": "event"
    },
    {
      "inputs": [
        {
          "internalType": "address",
          "name": "token",
          "type": "address"
        },
        {
          "internalType": "uint256",
          "name": "amount",
          "type": "uint256"
        },
        {
          "internalType": "string",
          "name": "chain",
          "type": "string"
        }
      ],
      "name": "deposit",
      "outputs": [],
      "stateMutability": "nonpayable",
      "type": "function"
    },
    {
      "inputs": [
        {
          "internalType": "address",
          "name": "token",
          "type": "address"
        },
        {
          "internalType": "uint256",
          "name": "amount",
          "type": "uint256"
        },
        {
          "internalType": "uint256",
          "name": "maxAge",
          "type": "uint256"
        }
      ],
      "name": "getDepositValueUsd",
      "outputs": [
        {
          "internalType": "uint256",
          "name": "valueUsd",
          "type": "uint256"
        }
      ],
      "stateMutability": "view",
      "type": "function"
    },
    {
      "inputs": [
        {
          "internalType": "address",
          "name": "token",
          "type": "address"
        },
        {
          "internalType": "uint256",
          "name": "maxAge",
          "type": "uint256"
        }
      ],
      "name": "getTokenPrice",
      "outputs": [
        {
          "internalType": "int64",
          "name": "price",
          "type": "int64"
        },
        {
          "internalType": "uint64",
          "name": "conf",
          "type": "uint64"
        },
        {
          "internalType": "int32",
          "name": "expo",
          "type": "int32"
        },
        {
          "internalType": "uint256",
          "name": "publishTime",
          "type": "uint256"
        }
      ],
      "stateMutability": "view",
      "type": "function"
    },
    {
      "inputs": [
        {
          "internalType": "address",
          "name": "token",
          "type": "address"
        },
        {
          "internalType": "uint256",
          "name": "maxAge",
          "type": "uint256"
        }
      ],
      "name": "getTokenPriceUsd",
      "outputs": [
        {
          "internalType": "uint256",
          "name": "priceUsd",
          "type": "uint256"
        }
      ],
      "stateMutability": "view",
      "type": "function"
    },
    {
      "inputs": [
        {
          "internalType": "address",
          "name": "user",
          "type": "address"
        },
        {
          "internalType": "address",
          "name": "token",
          "type": "address"
        }
      ],
      "name": "getUserDeposit",
      "outputs": [
        {
          "internalType": "uint256",
          "name": "",
          "type": "uint256"
        }
      ],
      "stateMutability": "view",
      "type": "function"
    },
    {
      "inputs": [
        {
          "internalType": "bytes32",
          "name": "",
          "type": "bytes32"
        }
      ],
      "name": "lastPriceUpdate",
      "outputs": [
        {
          "internalType": "uint256",
          "name": "",
          "type": "uint256"
        }
      ],
      "stateMutability": "view",
      "type": "function"
    },
    {
      "inputs": [],
      "name": "owner",
      "outputs": [
        {
          "internalType": "address",
          "name": "",
          "type": "address"
        }
      ],
      "stateMutability": "view",
      "type": "function"
    },
    {
      "inputs": [],
      "name": "pyth",
      "outputs": [
        {
          "internalType": "contract IPyth",
          "name": "",
          "type": "address"
        }
      ],
      "stateMutability": "view",
      "type": "function"
    },
    {
      "inputs": [
        {
          "internalType": "address",
          "name": "token",
          "type": "address"
        },
        {
          "internalType": "bytes32",
          "name": "priceFeedId",
          "type": "bytes32"
        }
      ],
      "name": "registerPriceFeed",
      "outputs": [],
      "stateMutability": "nonpayable",
      "type": "function"
    },
    {
      "inputs": [
        {
          "internalType": "address",
          "name": "",
          "type": "address"
        }
      ],
      "name": "tokenPriceFeedIds",
      "outputs": [
        {
          "internalType": "bytes32",
          "name": "",
          "type": "bytes32"
        }
      ],
      "stateMutability": "view",
      "type": "function"
    },
    {
      "inputs": [
        {
          "internalType": "address",
          "name": "",
          "type": "address"
        }
      ],
      "name": "totalDeposits",
      "outputs": [
        {
          "internalType": "uint256",
          "name": "",
          "type": "uint256"
        }
      ],
      "stateMutability": "view",
      "type": "function"
    },
    {
      "inputs": [
        {
          "internalType": "bytes[]",
          "name": "priceUpdateData",
          "type": "bytes[]"
        }
      ],
      "name": "updatePrices",
      "outputs": [],
      "stateMutability": "payable",
      "type": "function"
    },
    {
      "inputs": [
        {
          "internalType": "address",
          "name": "",
          "type": "address"
        },
        {
          "internalType": "address",
          "name": "",
          "type": "address"
        }
      ],
      "name": "userDeposits",
      "outputs": [
        {
          "internalType": "uint256",
          "name": "",
          "type": "uint256"
        }
      ],
      "stateMutability": "view",
      "type": "function"
    },
    {
      "inputs": [
        {
          "internalType": "address",
          "name": "token",
          "type": "address"
        },
        {
          "internalType": "uint256",
          "name": "amount",
          "type": "uint256"
        }
      ],
      "name": "withdraw",
      "outputs": [],
      "stateMutability": "nonpayable",
      "type": "function"
    },
    {
      "inputs": [],
      "name": "withdrawETH",
      "outputs": [],
      "stateMutability": "nonpayable",
      "type": "function"
    },
    {
      "stateMutability": "payable",
      "type": "receive"
    }
  ],
  "transactionHash": "0x28943032e47112c3a5ec40fabc4b6bbf3ef0fc9fe3490b0cf8031dd651c1ab66",
  "args": [
    "0x25F11abB6e6CBdb76c14fF39568C82e8799a4fEe",
    "0x8250f4aF4B972684F7b336503E2D6dFeDeB1487a"
  ],
  "numDeployments": 2,
  "solcInputHash": "55e805beac3cf8da1265f5516f894966",
  "bytecode": "0x60a06040523480156200001157600080fd5b50604051620019c1380380620019c183398101604081905262000034916200007f565b600160008190556001600160a01b0392831660805280546001600160a01b03191691909216179055620000b7565b80516001600160a01b03811681146200007a57600080fd5b919050565b600080604083850312156200009357600080fd5b6200009e8362000062565b9150620000ae6020840162000062565b90509250929050565b6080516118d9620000e8600039600081816101ca0152818161072101528181610a850152610ae601526118d96000f3fe6080604052600436106100ec5760003560e01c8063c9f7153c1161008a578063f3fef3a311610059578063f3fef3a3146102de578063f418e450146102fe578063f98d06f01461032b578063fb512cb31461034b57600080fd5b8063c9f7153c14610224578063e086e5ec1461027c578063e940325614610291578063edaac156146102be57600080fd5b8063436d8039116100c6578063436d80391461016057806375087560146101985780638da5cb5b146101b8578063bfe07da61461020457600080fd5b80630a4ccbeb146100f8578063148c658c1461010d5780632337e4651461014057600080fd5b366100f357005b600080fd5b61010b610106366004611152565b610378565b005b34801561011957600080fd5b5061012d6101283660046111e3565b6105bc565b6040519081526020015b60405180910390f35b34801561014c57600080fd5b5061012d61015b366004611216565b6105e9565b34801561016c57600080fd5b5061012d61017b3660046111e3565b600360209081526000928352604080842090915290825290205481565b3480156101a457600080fd5b5061010b6101b3366004611216565b610716565b3480156101c457600080fd5b506101ec7f000000000000000000000000000000000000000000000000000000000000000081565b6040516001600160a01b039091168152602001610137565b34801561021057600080fd5b5061010b61021f366004611287565b610839565b34801561023057600080fd5b5061024461023f366004611216565b6109a5565b604051610137949392919060079490940b845267ffffffffffffffff92909216602084015260030b6040830152606082015260800190565b34801561028857600080fd5b5061010b610a7a565b34801561029d57600080fd5b5061012d6102ac366004611336565b60026020526000908152604090205481565b3480156102ca57600080fd5b5061012d6102d9366004611351565b610b9f565b3480156102ea57600080fd5b5061010b6102f9366004611216565b610cc3565b34801561030a57600080fd5b5061012d610319366004611336565b60046020526000908152604090205481565b34801561033757600080fd5b506001546101ec906001600160a01b031681565b34801561035757600080fd5b5061012d610366366004611384565b60056020526000908152604090205481565b806103ca5760405162461bcd60e51b815260206004820152601960248201527f4e6f20707269636520757064617465732070726f76696465640000000000000060448201526064015b60405180910390fd5b60015460405163d47eed4560e01b81526000916001600160a01b03169063d47eed45906103fd90869086906004016113c6565b602060405180830381865afa15801561041a573d6000803e3d6000fd5b505050506040513d601f19601f8201168201806040525081019061043e9190611462565b90508034101561049a5760405162461bcd60e51b815260206004820152602160248201527f496e73756666696369656e742066656520666f722070726963652075706461746044820152606560f81b60648201526084016103c1565b600154604051631df3cbc560e31b81526001600160a01b039091169063ef9e5e289083906104ce90879087906004016113c6565b6000604051808303818588803b1580156104e757600080fd5b505af11580156104fb573d6000803e3d6000fd5b505050505060005b8281101561051d578061051581611491565b915050610503565b50803411156105b75760003361053383346114aa565b604051600081818185875af1925050503d806000811461056f576040519150601f19603f3d011682016040523d82523d6000602084013e610574565b606091505b50509050806105b55760405162461bcd60e51b815260206004820152600d60248201526c1499599d5b990819985a5b1959609a1b60448201526064016103c1565b505b505050565b6001600160a01b038083166000908152600360209081526040808320938516835292905220545b92915050565b6001600160a01b0382166000908152600460205260408120548061061f5760405162461bcd60e51b81526004016103c1906114bd565b60015460405163052571af60e51b815260048101839052602481018590526000916001600160a01b03169063a4ae35e090604401608060405180830381865afa158015610670573d6000803e3d6000fd5b505050506040513d601f19601f820116820180604052508101906106949190611500565b9050600719816040015160030b126106d75760408101516106b6906008611597565b6106c190600a6116a2565b81516106d0919060070b6116b4565b925061070e565b600881604001516106e7906116cb565b6106f191906116ee565b6106fc90600a6116a2565b815161070b919060070b61172b565b92505b505092915050565b336001600160a01b037f0000000000000000000000000000000000000000000000000000000000000000161461079a5760405162461bcd60e51b815260206004820152602360248201527f4f6e6c79206f776e65722063616e20726567697374657220707269636520666560448201526265647360e81b60648201526084016103c1565b6001600160a01b0382166107e05760405162461bcd60e51b815260206004820152600d60248201526c24b73b30b634b2103a37b5b2b760991b60448201526064016103c1565b6001600160a01b03821660008181526004602052604090819020839055517f74d6c3f76797bbf057a9eee350e5245be15de95bf9d2339e6de510ec592195ff9061082d9084815260200190565b60405180910390a25050565b610841610dbd565b600082116108865760405162461bcd60e51b81526020600482015260126024820152710416d6f756e74206d757374206265203e20360741b60448201526064016103c1565b6001600160a01b0383166108cc5760405162461bcd60e51b815260206004820152600d60248201526c24b73b30b634b2103a37b5b2b760991b60448201526064016103c1565b6108e16001600160a01b038416333085610de7565b6001600160a01b0383166000908152600260205260408120805484929061090990849061173f565b90915550503360009081526003602090815260408083206001600160a01b03871684529091528120805484929061094190849061173f565b90915550506040516001600160a01b0384169033907ff65183fa5938f2cb9c2608ff3cbad853c96efa794a219ae218dd17e5a58f2cbe90610987908690869042906117a2565b60405180910390a361099b33848484610e4e565b6105b76001600055565b6001600160a01b038216600090815260046020526040812054819081908190806109e15760405162461bcd60e51b81526004016103c1906114bd565b60015460405163052571af60e51b815260048101839052602481018890526000916001600160a01b03169063a4ae35e090604401608060405180830381865afa158015610a32573d6000803e3d6000fd5b505050506040513d601f19601f82011682018060405250810190610a569190611500565b805160208201516040830151606090930151919b909a509198509650945050505050565b336001600160a01b037f00000000000000000000000000000000000000000000000000000000000000001614610ae25760405162461bcd60e51b815260206004820152600d60248201526c2737ba103a34329027bbb732b960991b60448201526064016103c1565b60007f00000000000000000000000000000000000000000000000000000000000000006001600160a01b03164760405160006040518083038185875af1925050503d8060008114610b4f576040519150601f19603f3d011682016040523d82523d6000602084013e610b54565b606091505b5050905080610b9c5760405162461bcd60e51b81526020600482015260146024820152732330b4b632b2103a379039b2b7321022ba3432b960611b60448201526064016103c1565b50565b6001600160a01b03831660009081526004602052604081205480610bd55760405162461bcd60e51b81526004016103c1906114bd565b60015460405163052571af60e51b815260048101839052602481018590526000916001600160a01b03169063a4ae35e090604401608060405180830381865afa158015610c26573d6000803e3d6000fd5b505050506040513d601f19601f82011682018060405250810190610c4a9190611500565b8051909150600090610c5f9060070b876117cb565b90506000826040015160030b12610c91576040820151610c8090600a6116a2565b610c8a90826117cb565b9050610cb7565b8160400151610c9f906116cb565b610caa90600a6116a2565b610cb490826117fb565b90505b925050505b9392505050565b610ccb610dbd565b3360009081526003602090815260408083206001600160a01b0386168452909152902054811115610d355760405162461bcd60e51b8152602060048201526014602482015273496e73756666696369656e742062616c616e636560601b60448201526064016103c1565b3360009081526003602090815260408083206001600160a01b038616845290915281208054839290610d689084906114aa565b90915550506001600160a01b03821660009081526002602052604081208054839290610d959084906114aa565b90915550610daf90506001600160a01b0383163383610fc6565b610db96001600055565b5050565b600260005403610de057604051633ee5aeb560e01b815260040160405180910390fd5b6002600055565b6040516001600160a01b0384811660248301528381166044830152606482018390526105b59186918216906323b872dd906084015b604051602081830303815290604052915060e01b6020820180516001600160e01b038381831617835250505050610ff7565b60006060604051602001610e6c90634261736560e01b815260040190565b6040516020818303038152906040528051906020012083604051602001610e939190611829565b6040516020818303038152906040528051906020012003610edc57505060408051808201909152600c81526b10985cd9535bdbdb9dd95b1b60a21b60208201526104b090610f05565b505060408051808201909152600b81526a5365706f6c69614d6f636b60a81b6020820152610320905b60405166696e74656e742d60c81b6020820152606087811b6bffffffffffffffffffffffff199081166027840152602d60f81b603b84018190529188901b16603c8301526050820152605181018590526000906071016040516020818303038152906040529050856001600160a01b0316876001600160a01b03167f9e024249f273bc9709dbd16e49f48496a548836b851dd9986a840bf2b89d1cfb87858786604051610fb59493929190611845565b60405180910390a350505050505050565b6040516001600160a01b038381166024830152604482018390526105b791859182169063a9059cbb90606401610e1c565b600061100c6001600160a01b0384168361105a565b9050805160001415801561103157508080602001905181019061102f9190611881565b155b156105b757604051635274afe760e01b81526001600160a01b03841660048201526024016103c1565b6060610cbc8383600084600080856001600160a01b031684866040516110809190611829565b60006040518083038185875af1925050503d80600081146110bd576040519150601f19603f3d011682016040523d82523d6000602084013e6110c2565b606091505b5091509150610cb78683836060826110e2576110dd82611129565b610cbc565b81511580156110f957506001600160a01b0384163b155b1561112257604051639996b31560e01b81526001600160a01b03851660048201526024016103c1565b5080610cbc565b8051156111395780518082602001fd5b604051630a12f52160e11b815260040160405180910390fd5b6000806020838503121561116557600080fd5b823567ffffffffffffffff8082111561117d57600080fd5b818501915085601f83011261119157600080fd5b8135818111156111a057600080fd5b8660208260051b85010111156111b557600080fd5b60209290920196919550909350505050565b80356001600160a01b03811681146111de57600080fd5b919050565b600080604083850312156111f657600080fd5b6111ff836111c7565b915061120d602084016111c7565b90509250929050565b6000806040838503121561122957600080fd5b611232836111c7565b946020939093013593505050565b634e487b7160e01b600052604160045260246000fd5b604051601f8201601f1916810167ffffffffffffffff8111828210171561127f5761127f611240565b604052919050565b60008060006060848603121561129c57600080fd5b6112a5846111c7565b92506020808501359250604085013567ffffffffffffffff808211156112ca57600080fd5b818701915087601f8301126112de57600080fd5b8135818111156112f0576112f0611240565b611302601f8201601f19168501611256565b9150808252888482850101111561131857600080fd5b80848401858401376000848284010152508093505050509250925092565b60006020828403121561134857600080fd5b610cbc826111c7565b60008060006060848603121561136657600080fd5b61136f846111c7565b95602085013595506040909401359392505050565b60006020828403121561139657600080fd5b5035919050565b81835281816020850137506000828201602090810191909152601f909101601f19169091010190565b60208082528181018390526000906040600585901b8401810190840186845b8781101561145557868403603f190183528135368a9003601e1901811261140b57600080fd5b8901858101903567ffffffffffffffff81111561142757600080fd5b80360382131561143657600080fd5b61144186828461139d565b9550505091840191908401906001016113e5565b5091979650505050505050565b60006020828403121561147457600080fd5b5051919050565b634e487b7160e01b600052601160045260246000fd5b6000600182016114a3576114a361147b565b5060010190565b818103818111156105e3576105e361147b565b60208082526023908201527f50726963652066656564206e6f74207265676973746572656420666f7220746f60408201526235b2b760e91b606082015260800190565b60006080828403121561151257600080fd5b6040516080810167ffffffffffffffff828210818311171561153657611536611240565b81604052845191508160070b821461154d57600080fd5b908252602084015190808216821461156457600080fd5b5060208201526040830151600381900b811461157f57600080fd5b60408201526060928301519281019290925250919050565b600381810b9083900b01637fffffff8113637fffffff19821217156105e3576105e361147b565b600181815b808511156115f95781600019048211156115df576115df61147b565b808516156115ec57918102915b93841c93908002906115c3565b509250929050565b600082611610575060016105e3565b8161161d575060006105e3565b8160018114611633576002811461163d57611659565b60019150506105e3565b60ff84111561164e5761164e61147b565b50506001821b6105e3565b5060208310610133831016604e8410600b841016171561167c575081810a6105e3565b61168683836115be565b806000190482111561169a5761169a61147b565b029392505050565b6000610cbc63ffffffff841683611601565b80820281158282048414176105e3576105e361147b565b60008160030b637fffffff1981036116e5576116e561147b565b60000392915050565b600382810b9082900b03637fffffff198112637fffffff821317156105e3576105e361147b565b634e487b7160e01b600052601260045260246000fd5b60008261173a5761173a611715565b500490565b808201808211156105e3576105e361147b565b60005b8381101561176d578181015183820152602001611755565b50506000910152565b6000815180845261178e816020860160208601611752565b601f01601f19169290920160200192915050565b8381526060602082015260006117bb6060830185611776565b9050826040830152949350505050565b80820260008212600160ff1b841416156117e7576117e761147b565b81810583148215176105e3576105e361147b565b60008261180a5761180a611715565b600160ff1b8214600019841416156118245761182461147b565b500590565b6000825161183b818460208701611752565b9190910192915050565b84815260806020820152600061185e6080830186611776565b84604084015282810360608401526118768185611776565b979650505050505050565b60006020828403121561189357600080fd5b81518015158114610cbc57600080fdfea26469706673582212206f3cd0cbc89a1bc8b9be99bf814368868432097e322beb67dabfe1499cc03d1164736f6c63430008140033",
  "devdoc": {
    "author": "ETHOnline 2025",
    "errors": {
      "AddressEmptyCode(address)": [
        {
          "details": "There's no code at `target` (it is not a contract)."
        }
      ],
      "AddressInsufficientBalance(address)": [
        {
          "details": "The ETH balance of the account is not enough to perform the operation."
        }
      ],
      "FailedInnerCall()": [
        {
          "details": "A call to an address target failed. The target may have reverted."
        }
      ],
      "ReentrancyGuardReentrantCall()": [
        {
          "details": "Unauthorized reentrant call."
        }
      ],
      "SafeERC20FailedOperation(address)": [
        {
          "details": "An operation with an ERC20 token failed."
        }
      ]
    },
    "kind": "dev",
    "methods": {
      "deposit(address,uint256,string)": {
        "params": {
          "amount": "Amount to deposit",
          "chain": "Target chain for routing (e.g., \"Base\")",
          "token": "The ERC20 token address (e.g., PEPE)"
        }
      },
      "getDepositValueUsd(address,uint256,uint256)": {
        "params": {
          "amount": "The amount of tokens",
          "maxAge": "Maximum age of price in seconds",
          "token": "The token address"
        },
        "returns": {
          "valueUsd": "The value in USD (8 decimals)"
        }
      },
      "getTokenPrice(address,uint256)": {
        "params": {
          "maxAge": "Maximum age of price in seconds",
          "token": "The token address"
        },
        "returns": {
          "conf": "The confidence interval",
          "expo": "The exponent",
          "price": "The price in format price * 10^expo",
          "publishTime": "The publish time of the price"
        }
      },
      "getTokenPriceUsd(address,uint256)": {
        "params": {
          "maxAge": "Maximum age of price in seconds",
          "token": "The token address"
        },
        "returns": {
          "priceUsd": "The price in USD with 8 decimals"
        }
      },
      "registerPriceFeed(address,bytes32)": {
        "params": {
          "priceFeedId": "The Pyth price feed ID (bytes32)",
          "token": "The token address"
        }
      },
      "updatePrices(bytes[])": {
        "params": {
          "priceUpdateData": "Array of encoded price updates from Hermes"
        }
      },
      "withdraw(address,uint256)": {
        "params": {
          "amount": "Amount to withdraw",
          "token": "The token to withdraw"
        }
      }
    },
    "version": 1
  },
  "userdoc": {
    "kind": "user",
    "methods": {
      "deposit(address,uint256,string)": {
        "notice": "Deposit meme coins into the vault"
      },
      "getDepositValueUsd(address,uint256,uint256)": {
        "notice": "Calculate deposit value in USD using Pyth prices"
      },
      "getTokenPrice(address,uint256)": {
        "notice": "Get the current price for a token using Pyth"
      },
      "getTokenPriceUsd(address,uint256)": {
        "notice": "Get price in USD with 8 decimals"
      },
      "getUserDeposit(address,address)": {
        "notice": "Get user deposit balance"
      },
      "registerPriceFeed(address,bytes32)": {
        "notice": "Register a price feed ID for a token"
      },
      "updatePrices(bytes[])": {
        "notice": "Update price feeds with latest data from Hermes"
      },
      "withdraw(address,uint256)": {
        "notice": "Withdraw deposited tokens (for testing)"
      },
      "withdrawETH()": {
        "notice": "Function that allows the owner to withdraw ETH (for gas refunds)"
      }
    },
    "notice": "MemeVault contract for depositing meme coins and routing to highest yield vaults Integrates Pyth Network for real-time price feeds",
    "version": 1
  },
  "storageLayout": {
    "storage": [
      {
        "astId": 667,
        "contract": "contracts/MemeVault.sol:MemeVault",
        "label": "_status",
        "offset": 0,
        "slot": "0",
        "type": "t_uint256"
      },
      {
        "astId": 986,
        "contract": "contracts/MemeVault.sol:MemeVault",
        "label": "pyth",
        "offset": 0,
        "slot": "1",
        "type": "t_contract(IPyth)888"
      },
      {
        "astId": 990,
        "contract": "contracts/MemeVault.sol:MemeVault",
        "label": "totalDeposits",
        "offset": 0,
        "slot": "2",
        "type": "t_mapping(t_address,t_uint256)"
      },
      {
        "astId": 996,
        "contract": "contracts/MemeVault.sol:MemeVault",
        "label": "userDeposits",
        "offset": 0,
        "slot": "3",
        "type": "t_mapping(t_address,t_mapping(t_address,t_uint256))"
      },
      {
        "astId": 1000,
        "contract": "contracts/MemeVault.sol:MemeVault",
        "label": "tokenPriceFeedIds",
        "offset": 0,
        "slot": "4",
        "type": "t_mapping(t_address,t_bytes32)"
      },
      {
        "astId": 1004,
        "contract": "contracts/MemeVault.sol:MemeVault",
        "label": "lastPriceUpdate",
        "offset": 0,
        "slot": "5",
        "type": "t_mapping(t_bytes32,t_uint256)"
      }
    ],
    "types": {
      "t_address": {
        "encoding": "inplace",
        "label": "address",
        "numberOfBytes": "20"
      },
      "t_bytes32": {
        "encoding": "inplace",
        "label": "bytes32",
        "numberOfBytes": "32"
      },
      "t_contract(IPyth)888": {
        "encoding": "inplace",
        "label": "contract IPyth",
        "numberOfBytes": "20"
      },
      "t_mapping(t_address,t_bytes32)": {
        "encoding": "mapping",
        "key": "t_address",
        "label": "mapping(address => bytes32)",
        "numberOfBytes": "32",
        "value": "t_bytes32"
      },
      "t_mapping(t_address,t_mapping(t_address,t_uint256))": {
        "encoding": "mapping",
        "key": "t_address",
        "label": "mapping(address => mapping(address => uint256))",
        "numberOfBytes": "32",
        "value": "t_mapping(t_address,t_uint256)"
      },
      "t_mapping(t_address,t_uint256)": {
        "encoding": "mapping",
        "key": "t_address",
        "label": "mapping(address => uint256)",
        "numberOfBytes": "32",
        "value": "t_uint256"
      },
      "t_mapping(t_bytes32,t_uint256)": {
        "encoding": "mapping",
        "key": "t_bytes32",
        "label": "mapping(bytes32 => uint256)",
        "numberOfBytes": "32",
        "value": "t_uint256"
      },
      "t_uint256": {
        "encoding": "inplace",
        "label": "uint256",
        "numberOfBytes": "32"
      }
    }
  }
}